:100000000C9462000C948A000C948A000C948A0070
:100010000C948A000C948A000C948A000C948A0038
:100020000C948A000C948A000C948A000C948A0028
:100030000C948A000C942D030C948A000C948A0072
:100040000C9440020C948A000C948A000C948A0050
:100050000C948A000C948A000C948A000C948A00F8
:100060000C948A000C948A000000000024002700F1
:100070002A0000000000250028002B0000000000DE
:1000800023002600290004040404040404040202DA
:100090000202020203030303030301020408102007
:1000A0004080010204081020010204081020000012
:1000B0000007000201000003040600000000000029
:1000C0000000F01311241FBECFEFD8E0DEBFCDBF7C
:1000D00011E0A0E0B1E0E6E8FCE202C005900D927C
:1000E000AA30B107D9F711E0AAE0B1E001C01D9232
:1000F000AF33B107E1F710E0C4ECD0E004C02297C1
:10010000FE010E943D16C23CD107C9F70E941E03A2
:100110000C94C9150C9400000F931F93CF93DF9399
:10012000EC018B01000F111F060F171F0F8318879B
:100130001C861D861E861F861A86C8010E94C4144E
:10014000888B998B60E070E0A8010E94CC158889AB
:1001500099892F813885820F931F9B8B8A8BDF9122
:10016000CF911F910F9108950F931F93CF93DF931A
:10017000EC018B0161E070E00E94B8118F819885DD
:1001800063E070E00E94F2159B01CE0160E070E038
:10019000A8010E94F911DF91CF911F910F9108954D
:1001A000CF93DF93C5E1D1E0CE0166E970E00E9414
:1001B0008C00CE0164E070E00E944E03CE0164E04A
:1001C00070E00E94B400CE010E94B013CE010E94E4
:1001D0003D03809125019091260190930B0180931E
:1001E0000A01DF91CF910895CF92DF92EF92FF92B3
:1001F0000F931F93CF93DF9300E010E032ECE32ED8
:1002000031E0F32ECC24CA943AC0E0910A01F09177
:100210000B01DF01C7011D920197E9F701301105BC
:1002200071F080910A0190910B010230110579F073
:100230008C0F9D1FDC011196CC9211970CC0E091A0
:100240000A01F0910B01EC0FFD1FC28204C08C0F5C
:100250009D1FFC01C08285E191E00E94BF096AE018
:1002600070E080E090E00E94BC022396F1E0C23C86
:10027000DF0759F60F5F1F4F0330110519F0C0E07B
:10028000D0E0C3CF00E010E022ECE22E21E0F22E1D
:10029000CC24CA94E0910A01F0910B01DF01C7015F
:1002A0001D920197E9F7C0E0D0E00130110571F02F
:1002B00080910A0190910B010230110579F08C0FA9
:1002C0009D1FDC011196CC9211970CC0E0910A01A0
:1002D000F0910B01EC0FFD1FC28204C08C0F9D1F1B
:1002E000FC01C08285E191E00E94BF096AE070E0F4
:1002F00080E090E00E94BC022396F1E0C23CDF0760
:10030000A1F6CFEBD1E00130110571F080910A0127
:1003100090910B010230110579F08C0F9D1FDC01CB
:1003200011961C9211970CC0E0910A01F0910B01FB
:10033000EC0FFD1F128204C08C0F9D1FFC01108268
:1003400085E191E00E94BF0961E070E080E090E00B
:100350000E94BC022397FFEFCD3FDF07A1F60F5F9E
:100360001F4F0330110509F095CFC0E0D0E092ECAB
:10037000C92E91E0D92EE0910A01F0910B01DF0125
:10038000C6011D920197E9F700E010E02AC0C130D4
:10039000D10539F0C230D10539F011960C9311977F
:1003A00008C0FB01028305C0A901480F591FFA01CB
:1003B0000083039613966D5F7F4FF1E0823C9F07A9
:1003C00031F785E191E00E94BF0963E070E080E0D1
:1003D00090E00E94BC020F5F1F4F41E00030140705
:1003E000A1F120910A0130910B01D901B90180E0FE
:1003F00090E0CDCFC130D10539F0C230D10539F010
:100400001196EC92119708C0FB01E28205C0A90188
:10041000480F591FFA01E082039613966D5F7F4FD4
:10042000F1E0823C9F0731F785E191E00E94BF092E
:1004300063E070E080E090E00E94BC020150104058
:10044000EA940115110529F40DC0EE24EA9400E0A8
:1004500011E020910A0130910B01D901B90180E02E
:1004600090E0C8CF2196C330D10509F084CFDF9149
:10047000CF911F910F91FF90EF90DF90CF90089553
:100480001F920F920FB60F9211242F933F938F93C9
:100490009F93AF93BF938091100190911101A09110
:1004A0001201B0911301309114010196A11DB11DEB
:1004B000232F2D5F2D3720F02D570196A11DB11D43
:1004C000209314018093100190931101A0931201C5
:1004D000B093130180910C0190910D01A0910E0138
:1004E000B0910F010196A11DB11D80930C01909355
:1004F0000D01A0930E01B0930F01BF91AF919F9199
:100500008F913F912F910F900FBE0F901F901895D4
:100510008FB7F89420911001309111014091120190
:10052000509113018FBFB901CA0108959FB7F89484
:1005300020910C0130910D0140910E0150910F015D
:1005400086B5A89B06C08F3F21F02F5F3F4F4F4FCE
:100550005F4F9FBF542F432F322F2227280F311D6B
:10056000411D511D82E0220F331F441F551F8A95E4
:10057000D1F7B901CA010895EF92FF920F931F932B
:10058000CF93DF937B018C010E949602EB010FC099
:100590000E9496026C1B7D0B83E0683E780738F062
:1005A0000894E108F10801091109C851DC4FE11470
:1005B000F1040105110561F7DF91CF911F910F91B2
:1005C000FF90EF900895789484B5826084BD84B5DF
:1005D000816084BD85B5826085BD85B5816085BD3E
:1005E000EEE6F0E0808181608083E1E8F0E0108257
:1005F000808182608083808181608083E0E8F0E098
:10060000808181608083E1EBF0E080818460808381
:10061000E0EBF0E0808181608083EAE7F0E08081B8
:100620008460808380818260808380818160808318
:100630008081806880831092C1000895CF93DF93FA
:100640000E94E3020E94D000C0E0D0E00E94F400CB
:100650002097E1F30E940000F9CF1F921090330120
:1006600011FC08C010FE03C01F900C941B041F90C7
:100670000C9446091F900C94C603FC0183858830B6
:1006800061F0803151F0803441F0803231F080915E
:1006900081009081892B809381000895FC016387FC
:1006A0006093330162307105D9F06430710551F106
:1006B0006130710549F582E0809337018EEF8093B8
:1006C00036018781908568E170E00E94F2150097FD
:1006D00021F4609338016530B8F01092380114C0ED
:1006E000878190858531910514F483E001C088E00D
:1006F0008093370181958093360180913A018093F0
:10070000390102C010923701809120018830C9F070
:10071000893038F4823091F0843069F08130C1F44E
:1007200007C0803271F0803479F0803189F40CC0D8
:1007300085E390E00BC082E390E008C081E490E0A4
:1007400005C089E190E002C085E090E0928381835A
:1007500083858830C9F0893038F4823061F0843084
:1007600099F0813091F410C0803271F0803461F0E2
:10077000803159F409C08187878190858531910541
:1007800024F083E081870895118608951F920F92C7
:100790000FB60F9211242F933F938F939F93EF9354
:1007A000FF9390913901209108019923E1F0E091A4
:1007B0003401F09135018291281710F080E801C0D2
:1007C00080E93291231708F481603197F093350165
:1007D000E09334013081231708F484608EBD91507A
:1007E000909339011DC02A9A809127019091280188
:1007F00090933501809334012A98809136018217B5
:1008000020F080913701820F01C081E080930801C0
:100810002A9A80913A01809339012A9880E88EBD06
:10082000FF91EF919F918F913F912F910F900FBE6C
:100830000F901F9018951F920F920FB60F921124D0
:100840002F933F934F935F938F939F93EF93FF93D8
:100850009091070180913601891710F481E003C05F
:1008600080913701890F809307012A988091380180
:10087000823009F432C3833020F4813009F08CC413
:1008800014C4833009F4CFC1843009F085C4E091E9
:100890003401F0913501809107019291981710F47D
:1008A00090E001C090E82291281708F0906422910E
:1008B000281708F090622291281708F09061229181
:1008C000281708F098602291281708F09460229168
:1008D000281708F092602291281708F091609EBDB9
:1008E0009291981710F490E001C090E82291281797
:1008F00008F090642291281708F09062229128173E
:1009000008F090612291281708F09860229128172A
:1009100008F094602291281708F09260229128171D
:1009200008F091600DB407FEFDCF9EBD929198171F
:1009300010F490E001C090E82291281708F090642C
:100940002291281708F090622291281708F09061F0
:100950002291281708F098602291281708F09460D7
:100960002291281708F092602291281708F09160D0
:100970000DB407FEFDCF9EBD9291981710F490E044
:1009800001C090E82291281708F09064229128175E
:1009900008F090622291281708F0906122912817A0
:1009A00008F098602291281708F094602291281787
:1009B00008F092602291281708F091600DB407FEAC
:1009C000FDCF9EBD9291981710F490E001C090E881
:1009D0002291281708F090642291281708F090625D
:1009E0002291281708F090612291281708F098604A
:1009F0002291281708F094602291281708F092603D
:100A00002291281708F091600DB407FEFDCF9EBD1E
:100A10009291981710F490E001C090E82291281765
:100A200008F090642291281708F09062229128170C
:100A300008F090612291281708F0986022912817F9
:100A400008F094602291281708F0926022912817EC
:100A500008F091600DB407FEFDCF9EBD92919817EE
:100A600010F490E001C090E82291281708F09064FB
:100A70002291281708F090622291281708F09061BF
:100A80002291281708F098602291281708F09460A6
:100A90002291281708F092602291281708F091609F
:100AA0000DB407FEFDCF9EBD9291981710F490E013
:100AB00001C090E82291281708F09064229128172D
:100AC00008F090622291281708F09061229128176F
:100AD00008F098602291281708F094602291281756
:100AE00008F092602291281708F091600DB407FE7B
:100AF000FDCF9EBD9291981710F490E001C090E850
:100B00002291281708F090642291281708F090622B
:100B10002291281708F090612291281708F0986018
:100B20002291281708F094602291281708F092600B
:100B30002291281708F091600DB407FEFDCF9EBDED
:100B40009291981710F490E001C090E82291281734
:100B500008F090642291281708F0906222912817DB
:100B600008F090612291281708F0986022912817C8
:100B700008F094602291281708F0926022912817BB
:100B800008F091600DB407FEFDCF9EBD92919817BD
:100B900010F490E001C090E82291281708F09064CA
:100BA0002291281708F090622291281708F090618E
:100BB0002291281708F098602291281708F0946075
:100BC0002291281708F092602291281708F091606E
:100BD0000DB407FEFDCF9EBD9291981710F490E0E2
:100BE00001C090E82291281708F0906422912817FC
:100BF00008F090622291281708F09061229128173E
:100C000008F098602291281708F094602291281724
:100C100008F0926031972081281708F091600DB498
:100C200007FEFDCFB7C2E0913401F091350180910C
:100C300007019291981710F490E001C090E822917A
:100C4000281708F090642291281708F090622291EA
:100C5000281708F090612291281708F098602291D7
:100C6000281708F094602291281708F092602291CA
:100C7000281708F091609EBD9291981710F490E0AB
:100C800001C090E82291281708F09064229128175B
:100C900008F090622291281708F09061229128179D
:100CA00008F098602291281708F094602291281784
:100CB00008F092602291281708F091600DB407FEA9
:100CC000FDCF9EBD9291981710F490E001C090E87E
:100CD0002291281708F090642291281708F090625A
:100CE0002291281708F090612291281708F0986047
:100CF0002291281708F094602291281708F092603A
:100D00002291281708F091600DB407FEFDCF9EBD1B
:100D10009291981710F490E001C090E82291281762
:100D200008F090642291281708F090622291281709
:100D300008F090612291281708F0986022912817F6
:100D400008F094602291281708F0926022912817E9
:100D500008F091600DB407FEFDCF9EBD92919817EB
:100D600010F490E001C090E82291281708F09064F8
:100D70002291281708F090622291281708F09061BC
:100D80002291281708F098602291281708F09460A3
:100D90002291281708F092602291281708F091609C
:100DA0000DB407FEFDCF9EBD9291981710F490E010
:100DB00001C090E82291281708F09064229128172A
:100DC00008F090622291281708F09061229128176C
:100DD00008F098602291281708F094602291281753
:100DE00008F092602291281708F091600DB407FE78
:100DF000FDCF9EBD9291981710F490E001C090E84D
:100E00002291281708F090642291281708F0906228
:100E10002291281708F090612291281708F0986015
:100E20002291281708F094602291281708F0926008
:100E30002291281708F091600DB407FEFDCF9EBDEA
:100E40009291981710F490E001C090E82291281731
:100E500008F090642291281708F0906222912817D8
:100E600008F090612291281708F0986022912817C5
:100E700008F094602291281708F0926022912817B8
:100E800008F091600DB407FEFDCF9EBD92919817BA
:100E900010F490E001C090E82291281708F09064C7
:100EA0002291281708F090622291281708F090618B
:100EB0002291281708F098602291281708F0946072
:100EC0002291281708F0926031972081281708F0A6
:100ED00091600DB407FEFDCF5DC1E0913401F0914A
:100EE0003501809107019291981710F490E001C0AC
:100EF00090E82291281708F090642291281708F0B2
:100F000090622291281708F090612291281708F02A
:100F100098602291281708F094602291281708F011
:100F200092602291281708F091609EBD92919817C7
:100F300010F490E001C090E82291281708F0906426
:100F40002291281708F090622291281708F09061EA
:100F50002291281708F098602291281708F09460D1
:100F60002291281708F092602291281708F09160CA
:100F70000DB407FEFDCF9EBD9291981710F490E03E
:100F800001C090E82291281708F090642291281758
:100F900008F090622291281708F09061229128179A
:100FA00008F098602291281708F094602291281781
:100FB00008F092602291281708F091600DB407FEA6
:100FC000FDCF9EBD9291981710F490E001C090E87B
:100FD0002291281708F090642291281708F0906257
:100FE0002291281708F090612291281708F0986044
:100FF0002291281708F094602291281708F0926037
:101000002291281708F091600DB407FEFDCF9EBD18
:101010009291981710F490E001C090E8229128175F
:1010200008F090642291281708F090622291281706
:1010300008F090612291281708F0986022912817F3
:1010400008F094602291281708F0926022912817E6
:1010500008F091600DB407FEFDCF9EBD92919817E8
:1010600010F490E001C090E82291281708F09064F5
:101070002291281708F090622291281708F09061B9
:101080002291281708F098602291281708F09460A0
:101090002291281708F0926031972081281708F0D4
:1010A00091600DB407FEFDCF75C0E0913401F09161
:1010B0003501809107019291981710F490E001C0DA
:1010C00090E82291281708F090642291281708F0E0
:1010D00090622291281708F090612291281708F059
:1010E00098602291281708F094602291281708F040
:1010F00092602291281708F091609EBD92919817F6
:1011000010F490E001C090E82291281708F0906454
:101110002291281708F090622291281708F0906118
:101120002291281708F098602291281708F09460FF
:101130002291281708F092602291281708F09160F8
:101140000DB407FEFDCF9EBD9291981710F490E06C
:1011500001C090E82291281708F090642291281786
:1011600008F090622291281708F0906122912817C8
:1011700008F098602291281708F0946022912817AF
:1011800008F0926031972081281708F091600DB423
:1011900007FEFDCF9EBD64C0E0913401F0913501A2
:1011A000209107018291821710F480E001C080E84D
:1011B0009291921708F080649291921708F08062E1
:1011C0009291921708F080619291921708F08860CE
:1011D0009291921708F084609291921708F08260C1
:1011E0003197F0933501E09334019081921708F024
:1011F00081608EBD40911C01809134019091350138
:10120000FC013897481B28C03781321710F430E0B2
:1012100001C030E85681521708F0306455815217EA
:1012200008F030625481521708F030615381521730
:1012300008F038605281521708F03460518152171B
:1012400008F032605081521708F031600DB407FE8B
:10125000FDCF3EBD38970897342F380F3930A4F6AC
:101260002A9A8091270190912801909335018093CB
:101270003401FF91EF919F918F915F914F913F9139
:101280002F910F900FBE0F901F9018951F920F92E5
:101290000FB60F9211242F933F938F939F93AF9389
:1012A000BF93EF93FF9380912001843009F05AC0DF
:1012B000809106018130D9F41EBC80911F018130DC
:1012C00089F41092060110921F010DB407FEFDCFA4
:1012D0001EBC809125019091260190933501809349
:1012E000340140C00DB407FEFDCF1EBC3BC0A09131
:1012F0003401B0913501FD01819190E0887F9070BB
:101300009695982F882797958795906811962C9198
:10131000119730E0287F3070220F331F220F331FC8
:10132000822B932B218130E0A3E035952795AA9558
:10133000E1F7822B932B3296F0933501E093340141
:101340000DB407FEFDCF9EBD2091270130912801ED
:10135000E217F30719F421E0209306010DB407FE0C
:10136000FDCF8EBDFF91EF91BF91AF919F918F9176
:101370003F912F910F900FBE0F901F9018951F93C4
:10138000CF93DF93DC0181E01A968C931A978091BA
:1013900020018830F9F4F8945096ED91FC91519722
:1013A00052968D919C91539710C00DB407FEFDCFBE
:1013B00020812EBD0DB407FEFDCF21812EBD0DB4C1
:1013C00007FEFDCF22812EBD3396E817F90769F796
:1013D0000C94B011803411F00C94A20EF8941A966B
:1013E0001C921A9750962D913C91519780E090E075
:1013F0000C94980EBC01660F771F5696ED91FC91E8
:101400005797E60FF71F40815181420F531FE0911C
:101410002901F0912A01E60FF71F0190F081E02DDC
:10142000E656FF4F14915A96CD91DC915B97C60F0B
:10143000D71F0990D881C02D209711F40C94970ED6
:10144000F901212F20950C94910E308137FF16C0A1
:101450006881612B688300140014001400140014C8
:1014600000140014001400140014001400140014DC
:101470000014001468816223688315C06881612BA1
:1014800068830014001468816223688300140014C8
:1014900000140014001400140014001400140014AC
:1014A0000014001400140014001436FF16C06881E4
:1014B000612B68830014001400140014001400143D
:1014C000001400140014001400140014001400147C
:1014D000001468816223688315C06881612B68836A
:1014E000001400146881622368830014001400143F
:1014F000001400140014001400140014001400144C
:10150000001400140014001435FF16C06881612B0C
:101510006883001400140014001400140014001454
:10152000001400140014001400140014001400141B
:1015300068816223688315C06881612B6883001409
:1015400000146881622368830014001400140014DE
:1015500000140014001400140014001400140014EB
:1015600000140014001434FF16C06881612B6883D6
:1015700000140014001400140014001400140014CB
:1015800000140014001400140014001400146881E6
:101590006223688315C06881612B6883001400147E
:1015A000688162236883001400140014001400147E
:1015B000001400140014001400140014001400148B
:1015C0000014001433FF16C06881612B6883001477
:1015D000001400140014001400140014001400146B
:1015E0000014001400140014001400146881622315
:1015F000688315C06881612B6883001400146881BA
:1016000062236883001400140014001400140014F2
:10161000001400140014001400140014001400142A
:10162000001432FF16C06881612B68830014001417
:10163000001400140014001400140014001400140A
:1016400000140014001400140014688162236883DD
:1016500015C06881612B68830014001468816223BF
:101660006883001400140014001400140014001403
:1016700000140014001400140014001400140014CA
:1016800031FF16C06881612B6883001400140014B8
:1016900000140014001400140014001400140014AA
:1016A000001400140014001468816223688315C0BC
:1016B0006881612B68830014001468816223688349
:1016C000001400140014001400140014001400147A
:1016D000001400140014001400140014001430FF4F
:1016E00016C03881312B3883001400140014001404
:1016F000001400140014001400140014001400144A
:1017000000140014001438813223388315C0388146
:10171000312B3883001400143881322338830014AD
:101720000014001400140014001400140014001419
:10173000001400140014001400140014318137FF49
:1017400016C06881612B6883001400140014001413
:1017500000140014001400140014001400140014E9
:1017600000140014001468816223688315C0688126
:10177000612B68830014001468816223688300145D
:1017800000140014001400140014001400140014B9
:1017900000140014001400140014001436FF16C0C6
:1017A0006881612B68830014001400140014001475
:1017B0000014001400140014001400140014001489
:1017C0000014001468816223688315C06881612B4E
:1017D0006883001400146881622368830014001475
:1017E0000014001400140014001400140014001459
:1017F0000014001400140014001435FF16C0688192
:10180000612B6883001400140014001400140014E9
:101810000014001400140014001400140014001428
:10182000001468816223688315C06881612B688316
:1018300000140014688162236883001400140014EB
:1018400000140014001400140014001400140014F8
:10185000001400140014001434FF16C06881612BBA
:101860006883001400140014001400140014001401
:1018700000140014001400140014001400140014C8
:1018800068816223688315C06881612B68830014B6
:10189000001468816223688300140014001400148B
:1018A0000014001400140014001400140014001498
:1018B00000140014001433FF16C06881612B688384
:1018C0000014001400140014001400140014001478
:1018D0000014001400140014001400140014688193
:1018E0006223688315C06881612B6883001400142B
:1018F000688162236883001400140014001400142B
:101900000014001400140014001400140014001437
:101910000014001432FF16C06881612B6883001424
:101920000014001400140014001400140014001417
:1019300000140014001400140014001468816223C1
:10194000688315C06881612B688300140014688166
:10195000622368830014001400140014001400149F
:1019600000140014001400140014001400140014D7
:10197000001431FF16C06881612B688300140014C5
:1019800000140014001400140014001400140014B7
:10199000001400140014001400146881622368838A
:1019A00015C06881612B688300140014688162236C
:1019B00068830014001400140014001400140014B0
:1019C0000014001400140014001400140014001477
:1019D00030FF16C03881312B3883001400140014F6
:1019E0000014001400140014001400140014001457
:1019F000001400140014001438813223388315C0F9
:101A00003881312B38830014001438813223388315
:101A10000014001400140014001400140014001426
:101A20000014001400140014001400140014328177
:101A3000339637FF16C06881612B68830014001449
:101A400000140014001400140014001400140014F6
:101A500000140014001400140014688162236883C9
:101A600015C06881612B68830014001468816223AB
:101A700068830014001400140014001400140014EF
:101A800000140014001400140014001400140014B6
:101A900036FF16C06881612B68830014001400149F
:101AA0000014001400140014001400140014001496
:101AB000001400140014001468816223688315C0A8
:101AC0006881612B68830014001468816223688335
:101AD0000014001400140014001400140014001466
:101AE000001400140014001400140014001435FF36
:101AF00016C06881612B6883001400140014001460
:101B00000014001400140014001400140014001435
:101B100000140014001468816223688315C0688172
:101B2000612B6883001400146881622368830014A9
:101B30000014001400140014001400140014001405
:101B400000140014001400140014001434FF16C014
:101B50006881612B688300140014001400140014C1
:101B600000140014001400140014001400140014D5
:101B70000014001468816223688315C06881612B9A
:101B800068830014001468816223688300140014C1
:101B900000140014001400140014001400140014A5
:101BA0000014001400140014001433FF16C06881E0
:101BB000612B688300140014001400140014001436
:101BC0000014001400140014001400140014001475
:101BD000001468816223688315C06881612B688363
:101BE0000014001468816223688300140014001438
:101BF0000014001400140014001400140014001445
:101C0000001400140014001432FF16C06881612B08
:101C1000688300140014001400140014001400144D
:101C20000014001400140014001400140014001414
:101C300068816223688315C06881612B6883001402
:101C400000146881622368830014001400140014D7
:101C500000140014001400140014001400140014E4
:101C600000140014001431FF16C06881612B6883D2
:101C700000140014001400140014001400140014C4
:101C800000140014001400140014001400146881DF
:101C90006223688315C06881612B68830014001477
:101CA0006881622368830014001400140014001477
:101CB0000014001400140014001400140014001484
:101CC0000014001430FF16C03881312B3883001403
:101CD0000014001400140014001400140014001464
:101CE000001400140014001400140014388132236E
:101CF000388315C03881312B3883001400143881A3
:101D0000322338830014001400140014001400144B
:101D10000014001400140014001400140014001423
:101D20000014E417F50711F00C94250A9F010196A1
:101D300058964D915C9159978417950710F40C941F
:101D4000FA0911C3803109F0CFC2F8941A961C9297
:101D50001A9750962D913C91519780E090E0BBC22C
:101D6000BC01660F771F5696ED91FC915797E60FD1
:101D7000F71F40815181420F531FE0912901F091DB
:101D80002A01E60FF71F0190F081E02DE656FF4F84
:101D900014915A96CD91DC915B97C60FD71F09908D
:101DA000D881C02D209709F495C2F901212F2095E3
:101DB0008CC2308137FF0CC06881612B68830014AE
:101DC00000140014001400146881622368830BC09F
:101DD0006881612B68830014001468816223688322
:101DE0000014001400140014001436FF0CC06881A5
:101DF000612B68830014001400140014001468811F
:101E0000622368830BC06881612B6883001400140F
:101E10006881622368830014001400140014001405
:101E200035FF0CC06881612B688300140014001416
:101E3000001400146881622368830BC06881612BE1
:101E400068830014001468816223688300140014FE
:101E500000140014001434FF0CC06881612B6883E7
:101E600000140014001400140014688162236883B5
:101E70000BC06881612B68830014001468816223A1
:101E800068830014001400140014001433FF0CC005
:101E90006881612B6883001400140014001400147E
:101EA0006881622368830BC06881612B688300149A
:101EB0000014688162236883001400140014001465
:101EC000001432FF0CC06881612B68830014001479
:101ED0000014001400146881622368830BC06881B9
:101EE000612B6883001400146881622368830014E6
:101EF000001400140014001431FF0CC06881612B21
:101F00006883001400140014001400146881622314
:101F100068830BC06881612B68830014001468819A
:101F2000622368830014001400140014001430FFAE
:101F30000CC03881312B38830014001400140014B5
:101F400000143881322338830BC03881312B388319
:101F50000014001438813223388300140014001454
:101F600000140014318137FF0CC06881612B688335
:101F700000140014001400140014688162236883A4
:101F80000BC06881612B6883001400146881622390
:101F900068830014001400140014001436FF0CC0F1
:101FA0006881612B6883001400140014001400146D
:101FB0006881622368830BC06881612B6883001489
:101FC0000014688162236883001400140014001454
:101FD000001435FF0CC06881612B68830014001465
:101FE0000014001400146881622368830BC06881A8
:101FF000612B6883001400146881622368830014D5
:10200000001400140014001434FF0CC06881612B0C
:102010006883001400140014001400146881622303
:1020200068830BC06881612B688300140014688189
:10203000622368830014001400140014001433FF9A
:102040000CC06881612B6883001400140014001414
:1020500000146881622368830BC06881612B6883E8
:1020600000140014688162236883001400140014B3
:102070000014001432FF0CC06881612B68830014C7
:1020800000140014001400146881622368830BC0DC
:102090006881612B6883001400146881622368835F
:1020A0000014001400140014001431FF0CC06881E7
:1020B000612B68830014001400140014001468815C
:1020C000622368830BC06881612B6883001400144D
:1020D0006881622368830014001400140014001443
:1020E00030FF0CC03881312B3883001400140014E9
:1020F000001400143881322338830BC03881312B0F
:1021000038830014001438813223388300140014FB
:102110000014001400143281339637FF0CC068811C
:10212000612B6883001400140014001400146881EB
:10213000622368830BC06881612B688300140014DC
:1021400068816223688300140014001400140014D2
:1021500036FF0CC06881612B6883001400140014E2
:10216000001400146881622368830BC06881612BAE
:1021700068830014001468816223688300140014CB
:1021800000140014001435FF0CC06881612B6883B3
:102190000014001400140014001468816223688382
:1021A0000BC06881612B688300140014688162236E
:1021B00068830014001400140014001434FF0CC0D1
:1021C0006881612B6883001400140014001400144B
:1021D0006881622368830BC06881612B6883001467
:1021E0000014688162236883001400140014001432
:1021F000001433FF0CC06881612B68830014001445
:102200000014001400146881622368830BC0688185
:10221000612B6883001400146881622368830014B2
:10222000001400140014001432FF0CC06881612BEC
:1022300068830014001400140014001468816223E1
:1022400068830BC06881612B688300140014688167
:10225000622368830014001400140014001431FF7A
:102260000CC06881612B68830014001400140014F2
:1022700000146881622368830BC06881612B6883C6
:102280000014001468816223688300140014001491
:102290000014001430FF0CC03881312B3883001437
:1022A00000140014001400143881322338830BC04A
:1022B0003881312B3883001400143881322338835D
:1022C00000140014001400140014E417F50709F0BA
:1022D00070CD9F01019658964D915C915997841746
:1022E000950708F43DCD3FC0803209F03DC0F89419
:1022F0005096ED91FC91519752968D919C915397E8
:1023000016C00DB407FEFDCF2081269520682EBD96
:102310000DB407FEFDCF2181269520682EBD0DB49A
:1023200007FEFDCF2281269520682EBD3396E81743
:10233000F90739F717968D919C9118970CC00DB439
:1023400007FEFDCF1EBC0DB407FEFDCF1EBC0DB4B5
:1023500007FEFDCF1EBC01972FEF8F3F920779F745
:102360001A961C921A977894DF91CF911F91089535
:10237000AF92BF92CF92DF92EF92FF920F931F9393
:10238000CF93DF93EC017B01798F688F8B01000F76
:10239000111FC8010E94C4146C018C8BDD8AC80116
:1023A0000E94C4145C018E8BBF8AC8010E94C414B1
:1023B0008A8F9B8F2A2D3B2DE9012C2D3D2DD90194
:1023C000FC0180E090E007C0199219921D921D92C5
:1023D0001192119201968E159F05B4F3DF91CF9162
:1023E0001F910F91FF90EF90DF90CF90BF90AF9033
:1023F0000895CF93DF93DC01660F771FFA0154969F
:10240000CD91DC915597C60FD71F598348835696B7
:10241000CD91DC915797C60FD71FC901880F991F1F
:10242000820F931F99838883EA57FF4FE491F0E06E
:10243000EE0FFF1FEE58FF4F859194915A96ED9144
:10244000FC915B97E60FF71F80839183DF91CF911B
:1024500008954F925F926F927F928F929F92AF9268
:10246000BF92CF92DF92EF92FF920F931F93DF9371
:10247000CF93CDB7DEB728970FB6F894DEBF0FBE67
:10248000CDBF8C01DC011B968C911B97803109F428
:1024900040C08034F1F18BE061E00E9447148AE093
:1024A00061E00E9447148DE061E00E9447148CE0D7
:1024B00061E00E9447148BE060E00E948C148AE087
:1024C00060E00E948C148DE060E00E948C148CE02F
:1024D00060E00E948C1425C06701CC0CDD1CD80183
:1024E0005496ED91FC915597EC0DFD1D808161E0B6
:1024F0000E944714D8015496ED91FC915597EC0D2C
:10250000FD1D808160E00E948C140894E11CF11C88
:1025100002C0EE24FF24F801808D918DE816F906A3
:10252000D8F28CB580658CBD8CB58C7F8CBD8DB59B
:102530008EB5D80119968C9119978330F9F08430B3
:1025400030F4813009F48AC0823088F41BC08530B1
:1025500041F0853018F0863071F406C08CB5826089
:1025600008C08CB582600CC08CB582608CBD8CB507
:1025700081608CBD07C08CB582608CBD8CB58160DC
:102580008CBD6CC08DB581608DBDF80183858830B0
:1025900009F467C0803109F464C0803409F461C073
:1025A000803209F45EC01EBC0E942D031A8219827B
:1025B0000E9488026B017C011C821B8205C08B81FA
:1025C0009C8101969C838B838B819C81F7E2803177
:1025D0009F07ACF30E9488024B015C01D8011C9656
:1025E0001D921D921D921C921F971B968C911B97FA
:1025F0008830E1F08031D1F00E9488026D837E83C3
:102600008F8398871C821B8207C00E942D038B81B9
:102610009C8101969C838B838B819C81B7E2803166
:102620009B079CF30E9488022B013C01C818D90823
:10263000EA08FB08C40CD51CE61CF71C8D819E81A2
:10264000AF81B885C81AD90AEA0AFB0AD8011396DD
:10265000CD92DD92ED92FC92169703C08DB58E7FE0
:1026600093CF28960FB6F894DEBF0FBECDBFCF91A3
:10267000DF911F910F91FF90EF90DF90CF90BF906F
:10268000AF909F908F907F906F905F904F90089544
:10269000DF92EF92FF920F931F93CF93DF93EC01A2
:1026A0001092800080E18093810069817A8180E0CE
:1026B00090E020EA36E841E050E00E94D3152B81FB
:1026C0003C814D815E810E940516E09020018E2D97
:1026D000823051F0833018F4813081F405C08E2DA2
:1026E000843011F0883051F460E472E48FE090E0BF
:1026F0000E940516F22E032F142FD52E6F2D702F4A
:10270000812F9D2D20E034E244EF50E00E94D3154C
:1027100020E834E84EE150E00E9405168E2D82300C
:1027200049F4233431054105510524F423E430E014
:1027300040E050E091E0988330938700209386003A
:1027400080918100887F8093810090936F007894BE
:10275000DF91CF911F910F91FF90EF90DF9008953F
:10276000CF93DF93EC018A899B8990933501809305
:1027700034018F81988563E070E00E94F2156093C8
:102780003A01CE010E9429128B85883079F0803180
:1027900069F0803459F0803249F06AE070E080E0FE
:1027A00090E00E94BC02CE010E9448138B858032CB
:1027B000A1F48F8198850CC01EBC0DB407FEFDCF1F
:1027C0001EBC0DB407FEFDCF1EBC0DB407FEFDCF31
:1027D00001972FEF8F3F920779F7DF91CF910895FF
:1027E00010921E0182E390E09093170180931601EE
:1027F00010922101109222011092230110922401C3
:1028000010921F0181E08093200110921801109214
:10281000190110921A0110921B0110922E011092B0
:102820002D0110922A011092290110922C01109270
:102830002B010895833071F0843028F48130A1F0A9
:10284000823021F514C08630B1F08730D1F0843069
:10285000E9F404C0809180008F7703C080918000EC
:102860008F7D80938000089584B58F7702C084B5F2
:102870008F7D84BD08958091B0008F778093B000E4
:1028800008958091B0008F7D8093B0000895EF92FD
:10289000FF92CF93DF9390E0FC01E656FF4F449107
:1028A0008A579F4FFC018491882389F190E0880F1B
:1028B000991FFC01E859FF4F25913491D9018E5899
:1028C0009F4FFC0125913491E22EE7017E01F32E0A
:1028D000E701662349F49FB7F8948C9140958423CF
:1028E0008C93888184230BC0623059F49FB7F8948D
:1028F0008C91242F209582238C938881842B88832C
:1029000005C09FB7F8948C91842B8C939FBFDF9167
:10291000CF91FF90EF9008950F931F93DF93CF9384
:102920000F92CDB7DEB7282F30E0F901E255FF4F07
:102930008491F901E656FF4F14912A573F4FF90150
:1029400004910023D9F0882321F069830E941A148E
:102950006981E02FF0E0EE0FFF1FEE58FF4F8591E9
:102960009491DC019FB7F894662321F48C91109523
:10297000812302C08C91812B8C939FBF0F90CF91AC
:10298000DF911F910F910895CF93DF93BC018230A7
:10299000910510F462E070E0A0913D01B0913E011C
:1029A000ED01E0E0F0E040E050E021C08881998155
:1029B0008617970769F48A819B81309719F0938372
:1029C000828304C090933E0180933D01FE0134C098
:1029D0006817790738F44115510519F084179507E0
:1029E00008F4AC01FE018A819B819C01E9012097DA
:1029F000E9F641155105A9F1CA01861B970B049709
:102A000008F4BA01E0E0F0E02AC08D919C911197A2
:102A100084179507F9F46417750781F412968D9160
:102A20009C911397309719F09383828304C09093FD
:102A30003E0180933D01FD0132964FC0CA01861BC5
:102A4000970BFD01E80FF91F6193719302978D9326
:102A50009C9343C0FD01828193819C01D901109711
:102A6000A1F680913B0190913C01892B41F480912A
:102A700002019091030190933C0180933B014091AE
:102A80000401509105014115510541F44DB75EB760
:102A90008091000190910101481B590B20913B014D
:102AA00030913C0124173507B0F4CA01821B930B07
:102AB0008617970780F0AB014E5F5F4F841795072D
:102AC00050F0420F531F50933C0140933B01F901DA
:102AD0006193719302C0E0E0F0E0CF01DF91CF910C
:102AE0000895CF93DF93009709F450C0EC0122972B
:102AF0001B821A82A0913D01B0913E01109709F10D
:102B000040E050E0AC17BD0708F1BB83AA83FE018B
:102B100021913191E20FF31FAE17BF0779F48D9128
:102B20009C911197280F391F2E5F3F4F39832883BF
:102B300012968D919C9113979B838A834115510521
:102B400071F4D0933E01C0933D0120C012968D9147
:102B50009C911397AD01009711F0DC01D3CFFA01DE
:102B6000D383C28321913191E20FF31FCE17DF0788
:102B700069F488819981280F391F2E5F3F4FFA0130
:102B8000318320838A819B8193838283DF91CF91DC
:102B90000895F8940C944116DC0101C06D934150E6
:102BA0005040E0F70895629FD001739FF001829F2B
:102BB000E00DF11D649FE00DF11D929FF00D839FCC
:102BC000F00D749FF00D659FF00D9927729FB00D69
:102BD000E11DF91F639FB00DE11DF91FBD01CF017C
:102BE0001124089597FB092E07260AD077FD04D0FB
:102BF0002ED006D000201AF4709561957F4F08956D
:102C0000F6F7909581959F4F0895A1E21A2EAA1B81
:102C1000BB1BFD010DC0AA1FBB1FEE1FFF1FA2178C
:102C2000B307E407F50720F0A21BB30BE40BF50B89
:102C3000661F771F881F991F1A9469F76095709512
:102C4000809590959B01AC01BD01CF010895AA1B11
:102C5000BB1B51E107C0AA1FBB1FA617B70710F087
:102C6000A61BB70B881F991F5A95A9F780959095B9
:102C7000BC01CD010895EE0FFF1F0590F491E02DEA
:062C80000994F894FFCF57
:0A2C860020003F01000001010100E1
:00000001FF
