:100000000C9462000C948A000C948A000C948A0070
:100010000C948A000C948A000C948A000C948A0038
:100020000C948A000C948A000C948A000C948A0028
:100030000C948A000C94EC030C948A000C948A00B3
:100040000C94E9000C948A000C948A000C948A00A9
:100050000C948A000C948A000C948A000C948A00F8
:100060000C948A000C948A000000000024002700F1
:100070002A0000000000250028002B0000000000DE
:1000800023002600290004040404040404040202DA
:100090000202020203030303030301020408102007
:1000A0004080010204081020010204081020000012
:1000B0000007000201000003040600000000000029
:1000C0000000DE0011241FBECFEFD8E0DEBFCDBFA1
:1000D00011E0A0E0B1E0E4E0FCE002C005900D9288
:1000E000AA30B107D9F711E0AAE0B1E001C01D9232
:1000F000AD32B107E1F710E0C4ECD0E004C02297C4
:10010000FE010E94FC05C23CD107C9F70E94B9015B
:100110000C94BA050C940000CF93DF93CAE0D1E0B1
:10012000CE0162E30E948F02CE010E94A202CE01A4
:100130000E94BF02DF91CF910895EF92FF920F933B
:10014000CF93DF932FC08AE091E0B7014FE320E027
:1001500000E00E94C4020894E11CF11CCE15DF05EA
:1001600094F77E010894E11CF11CE70108C08AE0C5
:1001700091E0BE0140E050E00E942F0321968AE00A
:1001800091E00E948A02C817D90788F38AE091E0BB
:100190000E94BF026AE070E080E090E00E94570198
:1001A000E70102C0C0E0D0E08AE091E00E948A024C
:1001B000C817D907B8F7EE24FF24C5CF8AE091E02D
:1001C00062E370E040910601209108010E94F20272
:1001D00008951F920F920FB60F9211242F933F9301
:1001E0008F939F93AF93BF9380910F0190911001D4
:1001F000A0911101B0911201309113010196A11D3E
:10020000B11D232F2D5F2D3720F02D570196A11DF5
:10021000B11D2093130180930F0190931001A093BF
:100220001101B093120180910B0190910C01A091EA
:100230000D01B0910E010196A11DB11D80930B011E
:1002400090930C01A0930D01B0930E01BF91AF915B
:100250009F918F913F912F910F900FBE0F901F9004
:1002600018959FB7F89420910B0130910C014091A3
:100270000D0150910E0186B5A89B06C08F3F21F05D
:100280002F5F3F4F4F4F5F4F9FBF542F432F322F52
:100290002227280F311D411D511D82E0220F331FDF
:1002A000441F551F8A95D1F7B901CA010895EF92ED
:1002B000FF920F931F93CF93DF937B018C010E94DA
:1002C0003101EB010FC00E9431016C1B7D0B83E0FB
:1002D000683E780738F00894E108F108010911092F
:1002E000C851DC4FE114F1040105110561F7DF91FC
:1002F000CF911F910F91FF90EF900895789484B55E
:10030000826084BD84B5816084BD85B5826085BD11
:1003100085B5816085BDEEE6F0E0808181608083F7
:10032000E1E8F0E0108280818260808380818160DA
:100330008083E0E8F0E0808181608083E1EBF0E0A1
:10034000808184608083E0EBF0E080818160808345
:10035000EAE7F0E08081846080838081826080832E
:100360008081816080838081806880831092C10059
:100370000895CF93DF930E947E010E948C00C0E01D
:10038000D0E00E949D002097E1F30E940000F9CF89
:1003900080911A0190911B018230910529F18330DF
:1003A000910529F08130910509F094C074C08091C5
:1003B000180190911901009709F49CC020911E0129
:1003C000222309F097C0109221019093200180937D
:1003D0001F0181E090E090931B0180931A0110921D
:1003E00019011092180186C0809121012FE030E0A0
:1003F000281B310981E090E002C0880F991F2A95DF
:10040000E2F720911F0130912001220F331FE0916C
:100410001601F0911701E20FF31F20813181822331
:10042000932320912201009759F0222391F4809187
:100430001C0161E00E94B40381E08093220109C0A5
:10044000222339F080911C0160E00E94B4031092D5
:100450002201809121018F5F80932101803109F079
:1004600049C080911F019091200101969093200135
:1004700080931F0120911401309115018217930779
:1004800030F180911C0160E00E94B40310922201BF
:1004900083E090E02BC080912101803258F580915B
:1004A0001C0160E00E94B40310922201809121019E
:1004B0008F5F809321018032E9F482E090E0909395
:1004C0001B0180931A011092200110921F011092BB
:1004D000210110C080911E01882361F41092210136
:1004E0001092200110921F0181E090E090931B0177
:1004F00080931A0180911D0161E00E94B4038091F4
:100500001D0160E00E94B40380911E018F5F809303
:100510001E01089580911401909115010895FC0128
:100520006083262F30E040E050E060ED77E080E02F
:1005300090E00E94DF0583E291E0BA01A9010E94E8
:1005400087040895CF93DF93EC0180911C0161E053
:100550000E946F0380911D0161E00E946F03CE0134
:1005600068810E948F0283E291E068EC71E02FEFD6
:100570003FEFA9010E949904DF91CF910895109255
:100580001B0110921A0108950F931F93809114017B
:10059000909115018617970710F130E02F71307098
:1005A000A5E0220F331FAA95E1F710E00F7110703C
:1005B000022B132BF5E0000F111FFA95E1F750E025
:1005C0004F7150705068660F771FE0911601F091DF
:1005D0001701E60FF71F402B512B518340831F91CA
:1005E0000F910895CF92DF92EF92FF920F93CF93E6
:1005F000DF936C017B0140931C0120931D017093DC
:10060000150160931401CB010E94B504809316017B
:1006100090931701C0E0D0E008C0C601BE0140E0E1
:1006200020E000E00E94C4022196CE15DF05A8F369
:1006300010921B0110921A0110921E0110922001BB
:1006400010921F011092210182E3F6018083DF9155
:10065000CF910F91FF90EF90DF90CF900895809110
:100660001401909115018617970758F0660F771FB0
:10067000E0911601F0911701E60FF71F50685183C2
:1006800040830895833071F0843028F48130A1F0E4
:10069000823021F514C08630B1F08730D1F084303B
:1006A000E9F404C0809180008F7703C080918000BE
:1006B0008F7D80938000089584B58F7702C084B5C4
:1006C0008F7D84BD08958091B0008F778093B000B6
:1006D00008958091B0008F7D8093B0000895EF92CF
:1006E000FF92CF93DF9390E0FC01E656FF4F4491D9
:1006F0008A579F4FFC018491882389F190E0880FED
:10070000991FFC01E859FF4F25913491D9018E586A
:100710009F4FFC0125913491E22EE7017E01F32EDB
:10072000E701662349F49FB7F8948C9140958423A0
:100730008C93888184230BC0623059F49FB7F8945E
:100740008C91242F209582238C938881842B8883FD
:1007500005C09FB7F8948C91842B8C939FBFDF9139
:10076000CF91FF90EF9008950F931F93DF93CF9356
:100770000F92CDB7DEB7282F30E0F901E255FF4FD9
:100780008491F901E656FF4F14912A573F4FF90122
:1007900004910023D9F0882321F069830E94420349
:1007A0006981E02FF0E0EE0FFF1FEE58FF4F8591BB
:1007B0009491DC019FB7F894662321F48C911095F5
:1007C000812302C08C91812B8C939FBF0F90CF917E
:1007D000DF911F910F9108951F920F920FB60F9204
:1007E00011242F933F934F935F936F937F938F9336
:1007F0009F93AF93BF93EF93FF93E0912701F09105
:1008000028010995FF91EF91BF91AF919F918F9131
:100810007F916F915F914F913F912F910F900FBEFC
:100820000F901F901895FC01A3E0440F551F661F01
:10083000771FAA95D1F7403080E0580781E068071C
:1008400080E0780714F481E010C033E07595679577
:10085000579547953A95D1F7403080E0580781E0A9
:10086000680780E078071CF482E0828339C023E0C7
:1008700075956795579547952A95D1F7403080E053
:10088000580781E0680780E0780714F483E0EDCF33
:1008900092E075956795579547959A95D1F74030B1
:1008A00080E0580781E0680780E0780714F484E06E
:1008B000DCCF82E075956795579547958A95D1F776
:1008C000403080E0580781E0680780E0780714F442
:1008D00085E0CBCF85E082834FEF5FEF60E070E093
:1008E0008FB78383F894518340835093870040935C
:1008F000860083818FBF80918100887F80938100F3
:10090000809181009281892B8093810008951092BB
:10091000800020E1209381000E9413040895E1E803
:10092000F0E02081DC0112968C911297282B208315
:1009300008950F931F93CF93DF93EC018B01BA01BE
:10094000A901141615061606170614F40E941304BE
:100950001D830C8381E080936F00CE010E948F0481
:10096000DF91CF911F910F910895CF93DF93BC0139
:100970008230910510F462E070E0A0912B01B091FB
:100980002C01ED01E0E0F0E040E050E021C0888182
:1009900099818617970769F48A819B81309719F0AE
:1009A0009383828304C090932C0180932B01FE01DA
:1009B00034C06817790738F44115510519F08417C8
:1009C000950708F4AC01FE018A819B819C01E90135
:1009D0002097E9F641155105A9F1CA01861B970B2D
:1009E000049708F4BA01E0E0F0E02AC08D919C91F0
:1009F000119784179507F9F46417750781F4129617
:100A00008D919C911397309719F09383828304C042
:100A100090932C0180932B01FD0132964FC0CA01A7
:100A2000861B970BFD01E80FF91F619371930297E5
:100A30008D939C9343C0FD01828193819C01D901D8
:100A40001097A1F68091290190912A01892B41F4F8
:100A5000809102019091030190932A0180932901D2
:100A600040910401509105014115510541F44DB7E4
:100A70005EB78091000190910101481B590B2091B4
:100A8000290130912A0124173507B0F4CA01821BCD
:100A9000930B8617970780F0AB014E5F5F4F84176B
:100AA000950750F0420F531F50932A01409329019C
:100AB000F9016193719302C0E0E0F0E0CF01DF91B2
:100AC000CF910895CF93DF93009709F450C0EC01C4
:100AD00022971B821A82A0912B01B0912C011097B2
:100AE00009F140E050E0AC17BD0708F1BB83AA83D1
:100AF000FE0121913191E20FF31FAE17BF0779F488
:100B00008D919C911197280F391F2E5F3F4F39838C
:100B1000288312968D919C9113979B838A8341150C
:100B2000510571F4D0932C01C0932B0120C0129673
:100B30008D919C911397AD01009711F0DC01D3CFFB
:100B4000FA01D383C28321913191E20FF31FCE17B3
:100B5000DF0769F488819981280F391F2E5F3F4F85
:100B6000FA01318320838A819B8193838283DF9181
:100B7000CF910895F8940C940006A1E21A2EAA1BB6
:100B8000BB1BFD010DC0AA1FBB1FEE1FFF1FA2173D
:100B9000B307E407F50720F0A21BB30BE40BF50B3A
:100BA000661F771F881F991F1A9469F760957095C3
:100BB000809590959B01AC01BD01CF01089597FBF5
:100BC000092E05260ED057FD04D0D7DF0AD0001C11
:100BD00038F450954095309521953F4F4F4F5F4FDA
:100BE0000895F6F790958095709561957F4F8F4F9A
:100BF0009F4F0895EE0FFF1F0590F491E02D09948B
:040C0000F894FFCF96
:0A0C040020002D0100000200030093
:00000001FF
