:100000000C946C000C9494000C9494000C94940048
:100010000C9494000C9494000C9494000C94940010
:100020000C9494000C9494000C9494000C94940000
:100030000C9494000C9494000C9494000C949400F0
:100040000C947A010C9494000C9494000C949400F9
:100050000C9494000C9494000C9494000C949400D0
:100060000C9494000C94940030313233343536378C
:1000700038392D45484C502000000000002400274E
:10008000002A0000000000250028002B00000000CE
:1000900000230026002900040404040404040402CC
:1000A0000202020202030303030303010204081015
:1000B00020408001020408102001020408102000E2
:1000C0000000070002010000030406000000000019
:1000D000000000007001750111241FBECFEFD8E0B1
:1000E000DEBFCDBF11E0A0E0B1E0ECEDF1E102C078
:1000F00005900D92AA31B107D9F711E0AAE1B1E05C
:1001000001C01D92AC32B107E1F710E0C6EDD0E0BE
:1001100004C02297FE010E94DD08C43DD107C9F743
:100120000E9454020C948C080C94000081309105BC
:1001300021F48AE080931C010895009721F48AE15C
:1001400091E00E9459050895362F242F6AE0432F2D
:100150000E9408050895CF93DF93CAE1D1E0CE0154
:1001600060E171E042E00E949205CE0160E00E94F1
:100170006104CE016FE040E00E94A400DF91CF91C6
:100180000895CF92DF92EF92FF920F931F93DF9328
:10019000CF9300D000D0CDB7DEB700E010E07E01F5
:1001A0000894E11CF11C85E0C82ED12CCC0EDD1E7C
:1001B0001AC0FC01E859FF4FE491ED930196AC158C
:1001C000BD05B9F78AE191E0B70140E00E94D10393
:1001D0006AEF70E080E090E00E94E8010F5F1F4F3F
:1001E0000D30110519F0D701C801E3CF8AE191E084
:1001F00060E00E94BE046AEF70E080E090E00E9440
:10020000E8010F900F900F900F90CF91DF911F9109
:100210000F91FF90EF90DF90CF900895DF92EF92D3
:10022000FF920F931F93DF93CF9300D000D00F92D4
:10023000CDB7DEB7DE011196E5E0F1E085E0019093
:100240000D928150E1F703E610E07E010894E11C75
:10025000F11C90E2D92EC801B7014AE050E00E949B
:100260009608F70101900020E9F73197D0828AE1E2
:1002700091E0B70140E00E94D1036AEF70E080E0B6
:1002800090E00E94E8010150104029F78AE191E0D6
:1002900060E00E94BE046AEF70E080E090E00E949F
:1002A000E8018AE191E060E071E040E00E94D10362
:1002B0006AEF70E080E090E00E94E8010F900F90FC
:1002C0000F900F900F90CF91DF911F910F91FF90A2
:1002D000EF90DF9008950E94C1000E940E010895E2
:1002E00081E090E00E949600089580E090E00E94F6
:1002F000960008951F920F920FB60F9211242F931C
:100300003F938F939F93AF93BF93809123019091DD
:100310002401A0912501B091260130912701019679
:10032000A11DB11D232F2D5F2D3720F02D570196D4
:10033000A11DB11D209327018093230190932401D7
:10034000A0932501B093260180911F019091200177
:10035000A0912101B09122010196A11DB11D8093B0
:100360001F0190932001A0932101B0932201BF911E
:10037000AF919F918F913F912F910F900FBE0F9052
:100380001F9018959FB7F89420911F01309120017C
:10039000409121015091220186B5A89B06C08F3F54
:1003A00021F02F5F3F4F4F4F5F4F9FBF542F432F81
:1003B000322F2227280F311D411D511D82E0220FAF
:1003C000331F441F551F8A95D1F7B901CA010895FB
:1003D000EF92FF920F931F93CF93DF937B018C01DA
:1003E0000E94C201EB010FC00E94C2016C1B7D0B79
:1003F00083E0683E780738F00894E108F1080109C5
:100400001109C851DC4FE114F1040105110561F730
:10041000DF91CF911F910F91FF90EF900895019779
:1004200039F0880F991F880F991F02970197F1F7EC
:100430000895789484B5826084BD84B5816084BD5C
:1004400085B5826085BD85B5816085BDEEE6F0E04D
:10045000808181608083E1E8F0E0108280818260A9
:100460008083808181608083E0E8F0E0808181602A
:100470008083E1EBF0E0808184608083E0EBF0E05A
:10048000808181608083EAE7F0E0808184608083FE
:1004900080818260808380818160808380818068A8
:1004A00080831092C1000895CF93DF930E941902B8
:1004B0000E94AB00C0E0D0E00E946B012097E1F306
:1004C0000E940000F9CF8EBD0DB407FEFDCF8EB5A2
:1004D000089525E0629FB0011124DC01ED91FC91AB
:1004E0001197E60FF71F418183812481928148177C
:1004F00031F430E02F5F3F4F291B310910C030E04D
:10050000275F3F4F291B310990E00197841B910918
:1005100043E0880F991F4A95E1F7280F391FC90159
:10052000089580E00E94630280E00E9463020895C3
:100530009F92AF92BF92CF92DF92EF92FF920F9372
:100540001F93CF93DF93EC016B01B42EA22E8A810F
:1005500060E00E942C0785E090E00E940F02992441
:10056000EB2CFF240A2D10E004C0CE010E94910262
:100570009394292D30E08C8190E08E199F09801B87
:10058000910B281739078CF311C00B2D10E0015087
:100590001040000F111F0C0D1D1DF80181810E94DC
:1005A0006302F80180810E946302BA94BB2069F75C
:1005B00000E004C0CE010E9491020F5F0A15D0F343
:1005C0008A8161E00E942C07DF91CF911F910F91EA
:1005D000FF90EF90DF90CF90BF90AF909F900895E5
:1005E0002F923F924F925F926F927F928F929F9243
:1005F000AF92BF92CF92DF92EF92FF920F931F9331
:10060000DF93CF93CDB7DEB728970FB6F894DEBF50
:100610000FBECDBF7C017A83698385E0489F30019E
:100620001124D701AD90BC90A60CB71CF501038135
:10063000C180D02ED394DC188D2D90E0880F991FA7
:100640004E830E948707582E492E4E81C01631F4E2
:10065000C701642F0E9469025C0120C02C2D30E08C
:10066000802F90E0019728173907A9F4D501129639
:100670004C91129787E090E014962C91149730E0FB
:10068000841B9109821793070CF4C9015C0108943B
:10069000A11CB11C03C078E0A72EB12C18861F82C4
:1006A000F5013197FD83EC8368E0262E312C4CC098
:1006B000E60DF71D8181C81631F482819101281B56
:1006C0003109C90109C08381C81621F4848190E0F1
:1006D000019602C088E090E0AF81B885A817B907FD
:1006E00088F4CC2011F08B8104C082818F5FBF81A0
:1006F0008B0FF40160810E946407D80111969C93CE
:100700008E9307C080E060E00E946407F801918347
:100710008083C3942C813D81820E931E0E5F1F4FF8
:10072000D701ED91FC911197CD1410F2E60DF71D54
:10073000C701652D742D4D2D21810E949802EF81F6
:10074000F8853196F887EF832F8138852A153B0588
:1007500058F489809A80820E931EC201092F142DAD
:10076000CC242F5F2B83DCCF852D942D0E94340861
:1007700028960FB6F894DEBF0FBECDBFCF91DF91A4
:100780001F910F91FF90EF90DF90CF90BF90AF90AF
:100790009F908F907F906F905F904F903F902F90A1
:1007A0000895AF92BF92CF92DF92EF92FF920F9394
:1007B0001F93DF93CF930F92CDB7DEB75C016B0130
:1007C000242F30E0C901880F991F880F991F820FCD
:1007D000931FD501ED91FC911197E80FF91F8081CE
:1007E000813009F062C0C501642F49830E9469020B
:1007F0008C0161E070E00E946B077C01982FE92F6B
:10080000FF2D8C2D9D2DBC0180E090E0498142C0E0
:10081000DB012D91BD0127FF04C03081306830839A
:100820002F772C3461F12D3470F42A3338F42033CF
:10083000C0F4203251F12D3259F518C02534C9F0D9
:10084000283431F519C02836B9F0293628F4203576
:10085000C9F02536E9F40DC02C3689F02037C1F4F3
:1008600011C020533081322B308312C020812A6086
:100870000EC020812B600BC020812C6008C020811D
:100880002D6005C020812E6002C020812F60208352
:10089000019631968017910708F4BACFC501B701C8
:1008A0000E94F002C7010E9434080F90CF91DF919F
:1008B0001F910F91FF90EF90DF90CF90BF90AF907E
:1008C00008958F929F92AF92BF92DF92EF92FF9224
:1008D0000F931F93DF93CF930F92CDB7DEB78C01A9
:1008E000D62E262F30E0C901880F991F880F991F37
:1008F000820F931FD801ED91FC911197E80FF91F1A
:100900002081822F8450823060F1C8016D2D2983AF
:100910000E9469024C010E948707F82EE92E298166
:10092000223029F0233071F0213089F408C0E82FFB
:10093000F92F81E08193089481089108CF0160E04C
:1009400070E002C061E070E0A4010E948F08C8015D
:100950006F2D7E2D4D2D0E94F0028F2D9E2D0E9419
:1009600034080F90CF91DF911F910F91FF90EF907E
:10097000DF90BF90AF909F908F900895CF92DF92BD
:10098000FF920F931F93DF93CF9300D0CDB7DEB7C5
:100990006C01162F262F30E0C901880F991F880F90
:1009A000991F820F931FD601ED91FC911197E80FCB
:1009B000F91F2081822F8450823000F1C6012A83E2
:1009C0000E946902482F90E061E070E049830E9434
:1009D0006B07F82E092F2A814981213029F46FE015
:1009E00070E050E00E948F08C6016F2D702F412FDC
:1009F0000E94F0028F2D902F0E9434080F900F90CC
:100A0000CF91DF911F910F91FF90DF90CF900895CC
:100A1000CF92DF92EF92FF920F931F93DF93CF93CA
:100A200000D00F92CDB7DEB78C01862F642F2B83B9
:100A30000E9464077C019A8389832B812F3F01F5F3
:100A4000F801848190E0880F991F0E9487076C014C
:100A500080E009C0E82FF0E0EE0FFF1FEC0DFD1D58
:100A6000F182E0828F5FF8014481841798F3C80116
:100A7000B60120E00E949802C6010E94340807C017
:100A8000C801BE016F5F7F4F41E00E9498020F9046
:100A90000F900F90CF91DF911F910F91FF90EF90EA
:100AA000DF90CF900895262F6CE040E00E9408056B
:100AB00008950F931F93CF93DF938C01C0E0D0E094
:100AC00005C0C8016C2F0E94BE042196F8018381E5
:100AD00090E0C817D907ACF3C0E0D0E005C0C8016A
:100AE0006C2F0E9453052196F801848190E0C8176D
:100AF000D907ACF3DF91CF911F910F910895262F65
:100B00006FE040E00E9408050895262F6CE041E068
:100B10000E9408050895362F242F6BE0432F0E9472
:100B2000080508958F929F92AF92BF92CF92DF9265
:100B3000EF92FF920F931F93DF93CF930F92CDB756
:100B4000DEB74C016115710541F0DC0111967C9313
:100B50006E9313964C93139715C085E090E04983EC
:100B60000E948707FC0181E0808311821282138238
:100B700097E09483D4011196FC93EE9313968C9393
:100B800013974981F401148285E0489FA001112444
:100B900080E090E00DC0D401ED91FC911197E80F39
:100BA000F91F3381231718F414963C931497059674
:100BB000F40124818417950771F72F5F24830E9425
:100BC0007C0681E00E949B0680E00E94A40685E0EE
:100BD0000E94A906C4016FEF0E947F05C40167E06F
:100BE0004FEF0E948B05C40168E04FEF0E94A40004
:100BF000C40169E040E02FEF0E940805C4016FEFD7
:100C00000E948505EE24FF24CC24DD2411E0A12ED2
:100C1000B12C5BC0D401ED91FC911197EE0DFF1D3D
:100C20008081853031F462816150C40141810E942C
:100C30008B05D401ED91FC911197EE0DFF1D808184
:100C40008130C1F500E010E025C00817190719F43C
:100C5000828190E002C080E090E040E009C0950110
:100C6000082E02C0220F331F0A94E2F7422B01968E
:100C70000617170719F4248130E002C027E030E09E
:100C80002817390764F7C40169E0202F0E9408057E
:100C90000F5F1F4FD401ED91FC911197EE0DFF1DD9
:100CA000638170E0818190E09B01281B390B201744
:100CB00031075CF6C4016C2D0E94BE040894C11C6F
:100CC000D11CE5E0F0E0EE0EFF1ED40113968C91EE
:100CD000139790E0C816D9060CF49CCF0F90CF91D3
:100CE000DF911F910F91FF90EF90DF90CF90BF9019
:100CF000AF909F908F9008958DE061E00E94E7068D
:100D00008BE061E00E94E7068AE061E00E94E7066E
:100D10008DE060E00E942C078BE060E00E942C07D1
:100D20008AE061E00E942C078CB580618CBD8CB597
:100D300080648CBD0895882319F48CB5806202C04C
:100D40008CB58F7D8CBD08959CB5937F982B9CBDF1
:100D500008952CB5982F93702C7F922B9CBD2DB5A8
:100D600090E0959587959595879581702E7F822B3C
:100D70008DBD0895833071F0843028F48130A1F066
:100D8000823021F514C08630B1F08730D1F0843044
:100D9000E9F404C0809180008F7703C080918000C7
:100DA0008F7D80938000089584B58F7702C084B5CD
:100DB0008F7D84BD08958091B0008F778093B000BF
:100DC00008958091B0008F7D8093B0000895EF92D8
:100DD000FF92CF93DF9390E0FC01E555FF4F4491E4
:100DE00089569F4FFC018491882389F190E0880FF8
:100DF000991FFC01E758FF4F25913491D9018D5778
:100E00009F4FFC0125913491E22EE7017E01F32EE4
:100E1000E701662349F49FB7F8948C9140958423A9
:100E20008C93888184230BC0623059F49FB7F89467
:100E30008C91242F209582238C938881842B888306
:100E400005C09FB7F8948C91842B8C939FBFDF9142
:100E5000CF91FF90EF9008950F931F93DF93CF935F
:100E60000F92CDB7DEB7282F30E0F901E154FF4FE4
:100E70008491F901E555FF4F149129563F4FF9012F
:100E800004910023D9F0882321F069830E94BA06D7
:100E90006981E02FF0E0EE0FFF1FED57FF4F8591C6
:100EA0009491DC019FB7F894662321F48C911095FE
:100EB000812302C08C91812B8C939FBF0F90CF9187
:100EC000DF911F910F91089570E0382F20E0622B81
:100ED000732BCB0108950F931F93CF93DF93689FDC
:100EE0008001699F100D789F100D1124C8010E9488
:100EF0008707EC01009729F060E070E0A8010E94EC
:100F00008F08CE01DF91CF911F910F910895CF935C
:100F1000DF93BC018230910510F462E070E0A09193
:100F20002A01B0912B01ED01E0E0F0E040E050E05B
:100F300021C0888199818617970769F48A819B81EE
:100F4000309719F09383828304C090932B01809390
:100F50002A01FE0134C06817790738F4411551059C
:100F600019F08417950708F4AC01FE018A819B8172
:100F70009C01E9012097E9F641155105A9F1CA0143
:100F8000861B970B049708F4BA01E0E0F0E02AC052
:100F90008D919C91119784179507F9F46417750743
:100FA00081F412968D919C911397309719F0938349
:100FB000828304C090932B0180932A01FD01329615
:100FC0004FC0CA01861B970BFD01E80FF91F619303
:100FD000719302978D939C9343C0FD01828193810D
:100FE0009C01D9011097A1F68091280190912901C7
:100FF000892B41F480910C0190910D01909329016E
:101000008093280140910E0150910F014115510527
:1010100041F44DB75EB780910A0190910B01481BD6
:10102000590B209128013091290124173507B0F47C
:10103000CA01821B930B8617970780F0AB014E5FA6
:101040005F4F8417950750F0420F531F50932901AB
:1010500040932801F9016193719302C0E0E0F0E050
:10106000CF01DF91CF910895CF93DF93009709F4DB
:1010700050C0EC0122971B821A82A0912A01B091E4
:101080002B01109709F140E050E0AC17BD0708F1C3
:10109000BB83AA83FE0121913191E20FF31FAE17AA
:1010A000BF0779F48D919C911197280F391F2E5FFE
:1010B0003F4F3983288312968D919C9113979B8380
:1010C0008A834115510571F4D0932B01C0932A01F5
:1010D00020C012968D919C911397AD01009711F04D
:1010E000DC01D3CFFA01D383C28321913191E20F86
:1010F000F31FCE17DF0769F488819981280F391F04
:101100002E5F3F4FFA01318320838A819B81938335
:101110008283DF91CF910895F8940C94E108DC016B
:1011200001C06D9341505040E0F70895FB019F01CD
:10113000E8944230C4F04532B4F44A3029F497FBC5
:101140001EF4909581959F4F642F77270E94C708C2
:10115000805D8A330CF0895D8193CB010097A1F704
:1011600016F45DE251931082C9010C94B708DC01BA
:10117000FC01672F71917723E1F7329704C07C91CE
:101180006D9370836291AE17BF07C8F30895AA1BD1
:10119000BB1B51E107C0AA1FBB1FA617B70710F062
:1011A000A61BB70B881F991F5A95A9F78095909594
:1011B000BC01CD010895EE0FFF1F0590F491E02DC5
:1011C000099410E0C6EDD0E004C0FE010E94DD08E5
:0C11D0002296C83DD107C9F7F894FFCF64
:1011DC002D2D2D2D00202020200020002C01000082
:0A11EC0001000000030500040007E5
:00000001FF
